:1000000045C0000060C000005EC000005CC0000091
:100010005AC0000058C0000056C0000054C0000084
:1000200052C0000050C000004EC000004CC0000094
:100030004AC000007EC0000046C0000044C000006E
:1000400042C0000040C000003EC000003CC00000B4
:100050003AC0000038C0000036C0000034C00000C4
:1000600032C0000030C000002EC000002CC00000D4
:100070002AC0000028C0000026C0000024C00000E4
:1000800022C0000020C000001EC0000011241FBEBE
:10009000CFEFD0E4DEBFCDBF11E0A0E0B1E0E4E5FA
:1000A000F3E000E00BBF02C007900D92A430B1074F
:1000B000D9F721E0A4E0B1E001C01D92AD30B20754
:1000C000E1F71ED145C19CCF6093000170930101FF
:1000D00080930201909303016093070170930801DC
:1000E0008093090190930A0108958BE08093810029
:1000F0008DE790E0909389008093880082E0809360
:100100006F00109285001092840080910001909100
:100110000101A0910201B091030180930701909326
:100120000801A0930901B0930A018FB780688FBFBF
:1001300008951F920F920FB60F9211248F939F93E1
:10014000AF93BF938091070190910801A09109019D
:10015000B0910A010197A109B10980930701909319
:100160000801A0930901B0930A01892B8A2B8B2BDC
:1001700099F481E080930B0180910001909101013D
:10018000A0910201B09103018093070190930801AF
:10019000A0930901B0930A01BF91AF919F918F91F4
:1001A0000F900FBE0F901F901895EAE7F0E0808146
:1001B000806E80830895813081F0E1ECF0E08081F1
:1001C00088618083E2ECF0E080818660808383E355
:1001D0008093C4001092C5000895E9ECF0E080819E
:1001E00088618083EAECF0E080818660808383E32D
:1001F0008093CC001092CD000895813029F4809135
:10020000C800882374F008958091C00088238CF47E
:10021000A6ECB0E0E0ECF0E08C9180818823E4F380
:100220000895AEECB0E0E8ECF0E08C91808188239A
:10023000E4F30895613041F0E0ECF0E0908195FF47
:10024000FDCF8093C6000895E8ECF0E0908195FF23
:10025000FDCF8093CE00089580910C018130B9F0DC
:1002600028F0823019F1833051F132C081E080935F
:100270000C01E0ECF0E0808185FFFDCF60E080E0E4
:10028000D9DFE0ECF0E0808186FFFDCF24C08091D3
:1002900004018F5F80930401843121F482E0809314
:1002A0000C0120C081E080930C010895809104012D
:1002B0008F5F8093040182E080930C0113C08091D2
:1002C00004018F5F8093040183E080930C0113C0CD
:1002D00010920C01089580910C01823019F0833046
:1002E00051F00895809178009091790090930601E3
:1002F000809305010895109206011092050108955A
:1003000011B88FEF82B984B915B84FDF64E670E099
:1003100080E090E0D9DEE9DE80E04DDF80E06DDF57
:1003200010920C01C0ECD0E005E011E095DF88816F
:1003300085FFFDCF60E0F80180817CDF888186FF4A
:10034000FDCF80910B018823E1F310920B01EECFDA
:04035000F894FFCF4F
:0403540001000000A4
:00000001FF
